{
  "contractName": "EnhancedNetworkManager",
  "abi": [
    {
      "inputs": [],
      "stateMutability": "nonpayable",
      "type": "constructor"
    },
    {
      "anonymous": false,
      "inputs": [
        {
          "indexed": false,
          "internalType": "string",
          "name": "sourceId",
          "type": "string"
        },
        {
          "indexed": false,
          "internalType": "string",
          "name": "destId",
          "type": "string"
        },
        {
          "indexed": false,
          "internalType": "enum EnhancedNetworkManager.LinkState",
          "name": "state",
          "type": "uint8"
        }
      ],
      "name": "LinkStateChanged",
      "type": "event"
    },
    {
      "anonymous": false,
      "inputs": [
        {
          "indexed": false,
          "internalType": "string",
          "name": "switchId",
          "type": "string"
        },
        {
          "indexed": false,
          "internalType": "uint256",
          "name": "load",
          "type": "uint256"
        },
        {
          "indexed": false,
          "internalType": "uint256",
          "name": "timestamp",
          "type": "uint256"
        }
      ],
      "name": "MetricsUpdated",
      "type": "event"
    },
    {
      "anonymous": false,
      "inputs": [
        {
          "indexed": false,
          "internalType": "bytes32",
          "name": "pathId",
          "type": "bytes32"
        },
        {
          "indexed": false,
          "internalType": "bool",
          "name": "isPrimaryActive",
          "type": "bool"
        }
      ],
      "name": "PathFailover",
      "type": "event"
    },
    {
      "anonymous": false,
      "inputs": [
        {
          "indexed": false,
          "internalType": "string",
          "name": "switchId",
          "type": "string"
        },
        {
          "indexed": false,
          "internalType": "bool",
          "name": "isActive",
          "type": "bool"
        }
      ],
      "name": "SwitchStatusChanged",
      "type": "event"
    },
    {
      "inputs": [
        {
          "internalType": "bytes32",
          "name": "",
          "type": "bytes32"
        }
      ],
      "name": "links",
      "outputs": [
        {
          "internalType": "string",
          "name": "sourceId",
          "type": "string"
        },
        {
          "internalType": "string",
          "name": "destId",
          "type": "string"
        },
        {
          "internalType": "uint256",
          "name": "bandwidth",
          "type": "uint256"
        },
        {
          "internalType": "uint256",
          "name": "currentLoad",
          "type": "uint256"
        },
        {
          "internalType": "uint256",
          "name": "latency",
          "type": "uint256"
        },
        {
          "internalType": "enum EnhancedNetworkManager.LinkState",
          "name": "state",
          "type": "uint8"
        },
        {
          "internalType": "uint256",
          "name": "lastUpdated",
          "type": "uint256"
        }
      ],
      "stateMutability": "view",
      "type": "function",
      "constant": true
    },
    {
      "inputs": [],
      "name": "owner",
      "outputs": [
        {
          "internalType": "address",
          "name": "",
          "type": "address"
        }
      ],
      "stateMutability": "view",
      "type": "function",
      "constant": true
    },
    {
      "inputs": [
        {
          "internalType": "bytes32",
          "name": "",
          "type": "bytes32"
        }
      ],
      "name": "redundantPaths",
      "outputs": [
        {
          "internalType": "string",
          "name": "primaryPath",
          "type": "string"
        },
        {
          "internalType": "string",
          "name": "secondaryPath",
          "type": "string"
        },
        {
          "internalType": "bool",
          "name": "isPrimaryActive",
          "type": "bool"
        },
        {
          "internalType": "uint256",
          "name": "lastFailover",
          "type": "uint256"
        }
      ],
      "stateMutability": "view",
      "type": "function",
      "constant": true
    },
    {
      "inputs": [
        {
          "internalType": "string",
          "name": "",
          "type": "string"
        }
      ],
      "name": "switches",
      "outputs": [
        {
          "internalType": "string",
          "name": "switchId",
          "type": "string"
        },
        {
          "internalType": "enum EnhancedNetworkManager.SwitchType",
          "name": "switchType",
          "type": "uint8"
        },
        {
          "internalType": "bool",
          "name": "isActive",
          "type": "bool"
        },
        {
          "internalType": "uint256",
          "name": "totalPorts",
          "type": "uint256"
        },
        {
          "internalType": "uint256",
          "name": "usedPorts",
          "type": "uint256"
        }
      ],
      "stateMutability": "view",
      "type": "function",
      "constant": true
    },
    {
      "inputs": [
        {
          "internalType": "string",
          "name": "switchId",
          "type": "string"
        },
        {
          "internalType": "enum EnhancedNetworkManager.SwitchType",
          "name": "switchType",
          "type": "uint8"
        },
        {
          "internalType": "uint256",
          "name": "totalPorts",
          "type": "uint256"
        }
      ],
      "name": "registerSwitch",
      "outputs": [],
      "stateMutability": "nonpayable",
      "type": "function"
    },
    {
      "inputs": [
        {
          "internalType": "string",
          "name": "sourceId",
          "type": "string"
        },
        {
          "internalType": "string",
          "name": "destId",
          "type": "string"
        },
        {
          "internalType": "uint256",
          "name": "bandwidth",
          "type": "uint256"
        },
        {
          "internalType": "uint256",
          "name": "latency",
          "type": "uint256"
        },
        {
          "internalType": "enum EnhancedNetworkManager.LinkState",
          "name": "state",
          "type": "uint8"
        }
      ],
      "name": "updateLink",
      "outputs": [],
      "stateMutability": "nonpayable",
      "type": "function"
    },
    {
      "inputs": [
        {
          "internalType": "string",
          "name": "sourceId",
          "type": "string"
        },
        {
          "internalType": "string",
          "name": "destId",
          "type": "string"
        },
        {
          "internalType": "string",
          "name": "primaryPath",
          "type": "string"
        },
        {
          "internalType": "string",
          "name": "secondaryPath",
          "type": "string"
        }
      ],
      "name": "setRedundantPath",
      "outputs": [],
      "stateMutability": "nonpayable",
      "type": "function"
    },
    {
      "inputs": [
        {
          "internalType": "string",
          "name": "sourceId",
          "type": "string"
        },
        {
          "internalType": "string",
          "name": "destId",
          "type": "string"
        }
      ],
      "name": "triggerFailover",
      "outputs": [],
      "stateMutability": "nonpayable",
      "type": "function"
    },
    {
      "inputs": [
        {
          "internalType": "string",
          "name": "switchId",
          "type": "string"
        },
        {
          "internalType": "uint256",
          "name": "currentLoad",
          "type": "uint256"
        },
        {
          "internalType": "uint256",
          "name": "linkLatency",
          "type": "uint256"
        }
      ],
      "name": "updateMetrics",
      "outputs": [],
      "stateMutability": "nonpayable",
      "type": "function"
    },
    {
      "inputs": [
        {
          "internalType": "string",
          "name": "sourceId",
          "type": "string"
        },
        {
          "internalType": "string",
          "name": "destId",
          "type": "string"
        }
      ],
      "name": "getLinkStatus",
      "outputs": [
        {
          "components": [
            {
              "internalType": "string",
              "name": "sourceId",
              "type": "string"
            },
            {
              "internalType": "string",
              "name": "destId",
              "type": "string"
            },
            {
              "internalType": "uint256",
              "name": "bandwidth",
              "type": "uint256"
            },
            {
              "internalType": "uint256",
              "name": "currentLoad",
              "type": "uint256"
            },
            {
              "internalType": "uint256",
              "name": "latency",
              "type": "uint256"
            },
            {
              "internalType": "enum EnhancedNetworkManager.LinkState",
              "name": "state",
              "type": "uint8"
            },
            {
              "internalType": "uint256",
              "name": "lastUpdated",
              "type": "uint256"
            }
          ],
          "internalType": "struct EnhancedNetworkManager.Link",
          "name": "",
          "type": "tuple"
        }
      ],
      "stateMutability": "view",
      "type": "function",
      "constant": true
    },
    {
      "inputs": [
        {
          "internalType": "string",
          "name": "sourceId",
          "type": "string"
        },
        {
          "internalType": "string",
          "name": "destId",
          "type": "string"
        }
      ],
      "name": "getRedundantPath",
      "outputs": [
        {
          "components": [
            {
              "internalType": "string",
              "name": "primaryPath",
              "type": "string"
            },
            {
              "internalType": "string",
              "name": "secondaryPath",
              "type": "string"
            },
            {
              "internalType": "bool",
              "name": "isPrimaryActive",
              "type": "bool"
            },
            {
              "internalType": "uint256",
              "name": "lastFailover",
              "type": "uint256"
            }
          ],
          "internalType": "struct EnhancedNetworkManager.PathRedundancy",
          "name": "",
          "type": "tuple"
        }
      ],
      "stateMutability": "view",
      "type": "function",
      "constant": true
    }
  ],
  "bytecode": "0x608060405234801561001057600080fd5b50600380546001600160a01b0319163317908190556001600160a01b03166100535760405162461bcd60e51b815260040161004a90610058565b60405180910390fd5b61008f565b60208082526015908201527f496e76616c6964206f776e657220616464726573730000000000000000000000604082015260600190565b6116568061009e6000396000f3fe608060405234801561001057600080fd5b50600436106100a95760003560e01c80638da5cb5b116100715780638da5cb5b14610129578063a07ad4351461013e578063ad6a4e6814610151578063b2fccc7f14610171578063bd1217be14610197578063f70b7e70146101b7576100a9565b80631860895f146100ae5780632232c6e0146100c35780634fc9e77e146100f0578063623f164f1461010357806363df2c3314610116575b600080fd5b6100c16100bc36600461100e565b6101da565b005b6100d66100d1366004610f7b565b610274565b6040516100e7959493929190611287565b60405180910390f35b6100c16100fe36600461106f565b61033c565b6100c1610111366004610fb6565b6103ed565b6100c16101243660046111a0565b610572565b610131610650565b6040516100e79190611263565b6100c161014c366004611117565b61065f565b61016461015f36600461100e565b6107b6565b6040516100e79190611491565b61018461017f366004610f63565b6109a6565b6040516100e79796959493929190611340565b6101aa6101a536600461100e565b610af5565b6040516100e79190611515565b6101ca6101c5366004610f63565b610c87565b6040516100e794939291906112c8565b600082826040516020016101ef929190611234565b60408051601f198184030181528282528051602091820120600081815260029283905292909220908101805460ff19811660ff91821615179182905542600384015592945090927fc2c6509abf9e75fcf78bd95f9461d11d620dd4d23e9f38c885540200600dd17a92610266928692911690611277565b60405180910390a150505050565b805160208183018101805160008252928201919093012091528054819061029a906115a1565b80601f01602080910402602001604051908101604052809291908181526020018280546102c6906115a1565b80156103135780601f106102e857610100808354040283529160200191610313565b820191906000526020600020905b8154815290600101906020018083116102f657829003601f168201915b50505060018401546002850154600390950154939460ff80831695610100909304169350915085565b60008484604051602001610351929190611234565b60408051601f19818403018152828252805160209182012060808401835286845283820186905260018484015260006060850181905281815260028352929092208351805193955090926103a89284920190610dc3565b5060208281015180516103c19260018501920190610dc3565b50604082015160028201805460ff19169115159190911790556060909101516003909101555050505050565b60008351116104175760405162461bcd60e51b815260040161040e906113bd565b60405180910390fd5b600081116104375760405162461bcd60e51b815260040161040e906113f4565b6002828181111561045857634e487b7160e01b600052602160045260246000fd5b60ff1611156104795760405162461bcd60e51b815260040161040e90611464565b6040518060a001604052808481526020018360028111156104aa57634e487b7160e01b600052602160045260246000fd5b815260200160011515815260200182815260200160008152506000846040516104d39190611218565b908152602001604051809103902060008201518160000190805190602001906104fd929190610dc3565b50602082015160018083018054909160ff199091169083600281111561053357634e487b7160e01b600052602160045260246000fd5b021790555060408201516001820180549115156101000261ff001990921691909117905560608201516002820155608090910151600390910155505050565b600080846040516105839190611218565b908152604051908190036020019020600181015490915060ff610100909104166105bf5760405162461bcd60e51b815260040161040e90611436565b6000846040516020016105d29190611218565b60408051601f1981840301815282825280516020918201206000818152600190925291902060038101879055600481018690554260068201819055919350917f45af5a5dfc962c686eda092126a0f6eb9ecf3640f79cfbde427e3db369b5c2c9916106409189918991611398565b60405180910390a1505050505050565b6003546001600160a01b031681565b60008585604051602001610674929190611234565b6040516020818303038152906040528051906020012090506040518060e00160405280878152602001868152602001858152602001600081526020018481526020018360028111156106d657634e487b7160e01b600052602160045260246000fd5b8152426020918201526000838152600182526040902082518051919261070192849290910190610dc3565b50602082810151805161071a9260018501920190610dc3565b5060408201518160020155606082015181600301556080820151816004015560a08201518160050160006101000a81548160ff0219169083600281111561077157634e487b7160e01b600052602160045260246000fd5b021790555060c082015181600601559050507fca4f1a0125bd8e15102f9b6fb950ce0f61a9bcfaaf6afed71f29c849257a29c186868460405161064093929190611301565b6107be610e47565b600083836040516020016107d3929190611234565b60408051601f198184030181528282528051602091820120600081815260019092529082902060e08401909252815490935082908290610812906115a1565b80601f016020809104026020016040519081016040528092919081815260200182805461083e906115a1565b801561088b5780601f106108605761010080835404028352916020019161088b565b820191906000526020600020905b81548152906001019060200180831161086e57829003601f168201915b505050505081526020016001820180546108a4906115a1565b80601f01602080910402602001604051908101604052809291908181526020018280546108d0906115a1565b801561091d5780601f106108f25761010080835404028352916020019161091d565b820191906000526020600020905b81548152906001019060200180831161090057829003601f168201915b505050918352505060028281015460208301526003830154604083015260048301546060830152600583015460809092019160ff169081111561097057634e487b7160e01b600052602160045260246000fd5b600281111561098f57634e487b7160e01b600052602160045260246000fd5b815260200160068201548152505091505092915050565b6001602052600090815260409020805481906109c1906115a1565b80601f01602080910402602001604051908101604052809291908181526020018280546109ed906115a1565b8015610a3a5780601f10610a0f57610100808354040283529160200191610a3a565b820191906000526020600020905b815481529060010190602001808311610a1d57829003601f168201915b505050505090806001018054610a4f906115a1565b80601f0160208091040260200160405190810160405280929190818152602001828054610a7b906115a1565b8015610ac85780601f10610a9d57610100808354040283529160200191610ac8565b820191906000526020600020905b815481529060010190602001808311610aab57829003601f168201915b505050506002830154600384015460048501546005860154600690960154949592949193509160ff169087565b610afd610ea3565b60008383604051602001610b12929190611234565b60408051601f198184030181528282528051602091820120600081815260029092529082902060808401909252815490935082908290610b51906115a1565b80601f0160208091040260200160405190810160405280929190818152602001828054610b7d906115a1565b8015610bca5780601f10610b9f57610100808354040283529160200191610bca565b820191906000526020600020905b815481529060010190602001808311610bad57829003601f168201915b50505050508152602001600182018054610be3906115a1565b80601f0160208091040260200160405190810160405280929190818152602001828054610c0f906115a1565b8015610c5c5780601f10610c3157610100808354040283529160200191610c5c565b820191906000526020600020905b815481529060010190602001808311610c3f57829003601f168201915b5050509183525050600282015460ff1615156020820152600390910154604090910152949350505050565b600260205260009081526040902080548190610ca2906115a1565b80601f0160208091040260200160405190810160405280929190818152602001828054610cce906115a1565b8015610d1b5780601f10610cf057610100808354040283529160200191610d1b565b820191906000526020600020905b815481529060010190602001808311610cfe57829003601f168201915b505050505090806001018054610d30906115a1565b80601f0160208091040260200160405190810160405280929190818152602001828054610d5c906115a1565b8015610da95780601f10610d7e57610100808354040283529160200191610da9565b820191906000526020600020905b815481529060010190602001808311610d8c57829003601f168201915b505050506002830154600390930154919260ff1691905084565b828054610dcf906115a1565b90600052602060002090601f016020900481019282610df15760008555610e37565b82601f10610e0a57805160ff1916838001178555610e37565b82800160010185558215610e37579182015b82811115610e37578251825591602001919060010190610e1c565b50610e43929150610ecd565b5090565b6040518060e00160405280606081526020016060815260200160008152602001600081526020016000815260200160006002811115610e9657634e487b7160e01b600052602160045260246000fd5b8152602001600081525090565b60405180608001604052806060815260200160608152602001600015158152602001600081525090565b5b80821115610e435760008155600101610ece565b600082601f830112610ef2578081fd5b813567ffffffffffffffff80821115610f0d57610f0d6115dc565b604051601f8301601f191681016020018281118282101715610f3157610f316115dc565b604052828152848301602001861015610f48578384fd5b82602086016020830137918201602001929092529392505050565b600060208284031215610f74578081fd5b5035919050565b600060208284031215610f8c578081fd5b813567ffffffffffffffff811115610fa2578182fd5b610fae84828501610ee2565b949350505050565b600080600060608486031215610fca578182fd5b833567ffffffffffffffff811115610fe0578283fd5b610fec86828701610ee2565b9350506020840135610ffd81611613565b929592945050506040919091013590565b60008060408385031215611020578182fd5b823567ffffffffffffffff80821115611037578384fd5b61104386838701610ee2565b93506020850135915080821115611058578283fd5b5061106585828601610ee2565b9150509250929050565b60008060008060808587031215611084578081fd5b843567ffffffffffffffff8082111561109b578283fd5b6110a788838901610ee2565b955060208701359150808211156110bc578283fd5b6110c888838901610ee2565b945060408701359150808211156110dd578283fd5b6110e988838901610ee2565b935060608701359150808211156110fe578283fd5b5061110b87828801610ee2565b91505092959194509250565b600080600080600060a0868803121561112e578081fd5b853567ffffffffffffffff80821115611145578283fd5b61115189838a01610ee2565b96506020880135915080821115611166578283fd5b5061117388828901610ee2565b9450506040860135925060608601359150608086013561119281611613565b809150509295509295909350565b6000806000606084860312156111b4578283fd5b833567ffffffffffffffff8111156111ca578384fd5b6111d686828701610ee2565b9660208601359650604090950135949350505050565b60008151808452611204816020860160208601611571565b601f01601f19169290920160200192915050565b6000825161122a818460208701611571565b9190910192915050565b60008351611246818460208801611571565b83519083019061125a818360208801611571565b01949350505050565b6001600160a01b0391909116815260200190565b9182521515602082015260400190565b600060a0825261129a60a08301886111ec565b90506112a5866115f2565b602082019590955292151560408401526060830191909152608090910152919050565b6000608082526112db60808301876111ec565b82810360208401526112ed81876111ec565b941515604084015250506060015292915050565b60006060825261131460608301866111ec565b828103602084015261132681866111ec565b915050611332836115f2565b826040830152949350505050565b600060e0825261135360e083018a6111ec565b8281036020840152611365818a6111ec565b915050866040830152856060830152846080830152611383846115f2565b60a082019390935260c0015295945050505050565b6000606082526113ab60608301866111ec565b60208301949094525060400152919050565b60208082526019908201527f5377697463682049442063616e6e6f7420626520656d70747900000000000000604082015260600190565b60208082526022908201527f546f74616c20706f727473206d7573742062652067726561746572207468616e604082015261020360f41b606082015260800190565b602080825260149082015273537769746368206973206e6f742061637469766560601b604082015260600190565b602080825260139082015272496e76616c696420737769746368207479706560681b604082015260600190565b600060208252825160e060208401526114ae6101008401826111ec565b90506020840151601f198483030160408501526114cb82826111ec565b9150506040840151606084015260608401516080840152608084015160a084015260a08401516114fa816115f2565b8060c08501525060c084015160e08401528091505092915050565b60006020825282516080602084015261153160a08401826111ec565b90506020840151601f1984830301604085015261154e82826111ec565b915050604084015115156060840152606084015160808401528091505092915050565b60005b8381101561158c578181015183820152602001611574565b8381111561159b576000848401525b50505050565b6002810460018216806115b557607f821691505b602082108114156115d657634e487b7160e01b600052602260045260246000fd5b50919050565b634e487b7160e01b600052604160045260246000fd5b6003811061161057634e487b7160e01b600052602160045260246000fd5b50565b6003811061161057600080fdfea26469706673582212203e6768aaf6531ebc4b8f47518dac7b7281ba741f6eec38fd1806444420bb07c064736f6c63430008000033",
  "immutableReferences": {},
  "source": "// SPDX-License-Identifier: MIT\npragma solidity ^0.8.0;\n\ncontract EnhancedNetworkManager {\n    enum SwitchType { CORE, DISTRIBUTION, ACCESS }\n    enum LinkState { ACTIVE, DEGRADED, FAILED }\n    \n    struct Switch {\n        string switchId;\n        SwitchType switchType;\n        bool isActive;\n        uint256 totalPorts;\n        uint256 usedPorts;\n    }\n    \n    struct Link {\n        string sourceId;\n        string destId;\n        uint256 bandwidth;\n        uint256 currentLoad;\n        uint256 latency;\n        LinkState state;\n        uint256 lastUpdated;\n    }\n    \n    struct PathRedundancy {\n        string primaryPath;    // Comma-separated switch IDs\n        string secondaryPath;  // Backup path\n        bool isPrimaryActive;\n        uint256 lastFailover;\n    }\n    \n    // State variables\n    mapping(string => Switch) public switches;\n    mapping(bytes32 => Link) public links;\n    mapping(bytes32 => PathRedundancy) public redundantPaths;\n    address public owner;\n    \n    // Events\n    event SwitchStatusChanged(string switchId, bool isActive);\n    event LinkStateChanged(string sourceId, string destId, LinkState state);\n    event PathFailover(bytes32 pathId, bool isPrimaryActive);\n    event MetricsUpdated(string switchId, uint256 load, uint256 timestamp);\n\n    constructor() {\n        owner = msg.sender;\n        require(owner != address(0), \"Invalid owner address\");\n    }\n    \n    // Switch management\n    function registerSwitch(\n    string memory switchId,\n    SwitchType switchType,\n    uint256 totalPorts\n    ) public {\n        require(bytes(switchId).length > 0, \"Switch ID cannot be empty\");\n        require(totalPorts > 0, \"Total ports must be greater than 0\");\n        require(uint8(switchType) <= uint8(SwitchType.ACCESS), \"Invalid switch type\");\n    \n        switches[switchId] = Switch(\n            switchId,\n            switchType,\n            true,\n            totalPorts,\n            0\n        );\n    }\n    \n    // Link management\n    function updateLink(\n        string memory sourceId,\n        string memory destId,\n        uint256 bandwidth,\n        uint256 latency,\n        LinkState state\n    ) public {\n        bytes32 linkId = keccak256(abi.encodePacked(sourceId, destId));\n        links[linkId] = Link(\n            sourceId,\n            destId,\n            bandwidth,\n            0,\n            latency,\n            state,\n            block.timestamp\n        );\n        \n        emit LinkStateChanged(sourceId, destId, state);\n    }\n    \n    // Path redundancy management\n    function setRedundantPath(\n        string memory sourceId,\n        string memory destId,\n        string memory primaryPath,\n        string memory secondaryPath\n    ) public {\n        bytes32 pathId = keccak256(abi.encodePacked(sourceId, destId));\n        redundantPaths[pathId] = PathRedundancy(\n            primaryPath,\n            secondaryPath,\n            true,\n            0\n        );\n    }\n    \n    function triggerFailover(string memory sourceId, string memory destId) public {\n        bytes32 pathId = keccak256(abi.encodePacked(sourceId, destId));\n        PathRedundancy storage path = redundantPaths[pathId];\n        path.isPrimaryActive = !path.isPrimaryActive;\n        path.lastFailover = block.timestamp;\n        \n        emit PathFailover(pathId, path.isPrimaryActive);\n    }\n    \n    // Metrics and monitoring\n    function updateMetrics(\n        string memory switchId,\n        uint256 currentLoad,\n        uint256 linkLatency\n    ) public {\n        Switch storage switch_ = switches[switchId];\n        require(switch_.isActive, \"Switch is not active\");\n        \n        // Update link metrics\n        bytes32 linkId = keccak256(abi.encodePacked(switchId));\n        Link storage link = links[linkId];\n        link.currentLoad = currentLoad;\n        link.latency = linkLatency;\n        link.lastUpdated = block.timestamp;\n        \n        emit MetricsUpdated(switchId, currentLoad, block.timestamp);\n    }\n    \n    // Getters for network state\n    function getLinkStatus(string memory sourceId, string memory destId) \n        public view returns (Link memory) {\n        bytes32 linkId = keccak256(abi.encodePacked(sourceId, destId));\n        return links[linkId];\n    }\n    \n    function getRedundantPath(string memory sourceId, string memory destId) \n        public view returns (PathRedundancy memory) {\n        bytes32 pathId = keccak256(abi.encodePacked(sourceId, destId));\n        return redundantPaths[pathId];\n    }\n}",
  "sourcePath": "/home/sairam/decentralized-network/src/contracts/EnhancedNetworkManager.sol",
  "compiler": {
    "name": "solc",
    "version": "0.8.0+commit.c7dfd78e.Emscripten.clang"
  },
  "schemaVersion": "3.4.16",
  "updatedAt": "2025-01-19T16:53:35.248Z",
  "networkType": "ethereum",
  "devdoc": {
    "kind": "dev",
    "methods": {},
    "version": 1
  },
  "userdoc": {
    "kind": "user",
    "methods": {},
    "version": 1
  }
}