{
  "contractName": "EnhancedNetworkManager",
  "abi": [
    {
      "inputs": [],
      "stateMutability": "nonpayable",
      "type": "constructor"
    },
    {
      "anonymous": false,
      "inputs": [
        {
          "indexed": false,
          "internalType": "string",
          "name": "sourceId",
          "type": "string"
        },
        {
          "indexed": false,
          "internalType": "string",
          "name": "destId",
          "type": "string"
        },
        {
          "indexed": false,
          "internalType": "enum EnhancedNetworkManager.LinkState",
          "name": "state",
          "type": "uint8"
        }
      ],
      "name": "LinkStateChanged",
      "type": "event"
    },
    {
      "anonymous": false,
      "inputs": [
        {
          "indexed": false,
          "internalType": "string",
          "name": "switchId",
          "type": "string"
        },
        {
          "indexed": false,
          "internalType": "uint256",
          "name": "load",
          "type": "uint256"
        },
        {
          "indexed": false,
          "internalType": "uint256",
          "name": "timestamp",
          "type": "uint256"
        }
      ],
      "name": "MetricsUpdated",
      "type": "event"
    },
    {
      "anonymous": false,
      "inputs": [
        {
          "indexed": false,
          "internalType": "bytes32",
          "name": "pathId",
          "type": "bytes32"
        },
        {
          "indexed": false,
          "internalType": "bool",
          "name": "isPrimaryActive",
          "type": "bool"
        }
      ],
      "name": "PathFailover",
      "type": "event"
    },
    {
      "anonymous": false,
      "inputs": [
        {
          "indexed": false,
          "internalType": "string",
          "name": "switchId",
          "type": "string"
        },
        {
          "indexed": false,
          "internalType": "bool",
          "name": "isActive",
          "type": "bool"
        }
      ],
      "name": "SwitchStatusChanged",
      "type": "event"
    },
    {
      "inputs": [
        {
          "internalType": "bytes32",
          "name": "",
          "type": "bytes32"
        }
      ],
      "name": "links",
      "outputs": [
        {
          "internalType": "string",
          "name": "sourceId",
          "type": "string"
        },
        {
          "internalType": "string",
          "name": "destId",
          "type": "string"
        },
        {
          "internalType": "uint256",
          "name": "bandwidth",
          "type": "uint256"
        },
        {
          "internalType": "uint256",
          "name": "currentLoad",
          "type": "uint256"
        },
        {
          "internalType": "uint256",
          "name": "latency",
          "type": "uint256"
        },
        {
          "internalType": "enum EnhancedNetworkManager.LinkState",
          "name": "state",
          "type": "uint8"
        },
        {
          "internalType": "uint256",
          "name": "lastUpdated",
          "type": "uint256"
        }
      ],
      "stateMutability": "view",
      "type": "function"
    },
    {
      "inputs": [],
      "name": "owner",
      "outputs": [
        {
          "internalType": "address",
          "name": "",
          "type": "address"
        }
      ],
      "stateMutability": "view",
      "type": "function"
    },
    {
      "inputs": [
        {
          "internalType": "bytes32",
          "name": "",
          "type": "bytes32"
        }
      ],
      "name": "redundantPaths",
      "outputs": [
        {
          "internalType": "string",
          "name": "primaryPath",
          "type": "string"
        },
        {
          "internalType": "string",
          "name": "secondaryPath",
          "type": "string"
        },
        {
          "internalType": "bool",
          "name": "isPrimaryActive",
          "type": "bool"
        },
        {
          "internalType": "uint256",
          "name": "lastFailover",
          "type": "uint256"
        }
      ],
      "stateMutability": "view",
      "type": "function"
    },
    {
      "inputs": [
        {
          "internalType": "string",
          "name": "",
          "type": "string"
        }
      ],
      "name": "switches",
      "outputs": [
        {
          "internalType": "string",
          "name": "switchId",
          "type": "string"
        },
        {
          "internalType": "enum EnhancedNetworkManager.SwitchType",
          "name": "switchType",
          "type": "uint8"
        },
        {
          "internalType": "bool",
          "name": "isActive",
          "type": "bool"
        },
        {
          "internalType": "uint256",
          "name": "totalPorts",
          "type": "uint256"
        },
        {
          "internalType": "uint256",
          "name": "usedPorts",
          "type": "uint256"
        }
      ],
      "stateMutability": "view",
      "type": "function"
    },
    {
      "inputs": [
        {
          "internalType": "string",
          "name": "switchId",
          "type": "string"
        },
        {
          "internalType": "enum EnhancedNetworkManager.SwitchType",
          "name": "switchType",
          "type": "uint8"
        },
        {
          "internalType": "uint256",
          "name": "totalPorts",
          "type": "uint256"
        }
      ],
      "name": "registerSwitch",
      "outputs": [],
      "stateMutability": "nonpayable",
      "type": "function"
    },
    {
      "inputs": [
        {
          "internalType": "string",
          "name": "sourceId",
          "type": "string"
        },
        {
          "internalType": "string",
          "name": "destId",
          "type": "string"
        },
        {
          "internalType": "uint256",
          "name": "bandwidth",
          "type": "uint256"
        },
        {
          "internalType": "uint256",
          "name": "latency",
          "type": "uint256"
        },
        {
          "internalType": "enum EnhancedNetworkManager.LinkState",
          "name": "state",
          "type": "uint8"
        }
      ],
      "name": "updateLink",
      "outputs": [],
      "stateMutability": "nonpayable",
      "type": "function"
    },
    {
      "inputs": [
        {
          "internalType": "string",
          "name": "sourceId",
          "type": "string"
        },
        {
          "internalType": "string",
          "name": "destId",
          "type": "string"
        },
        {
          "internalType": "string",
          "name": "primaryPath",
          "type": "string"
        },
        {
          "internalType": "string",
          "name": "secondaryPath",
          "type": "string"
        }
      ],
      "name": "setRedundantPath",
      "outputs": [],
      "stateMutability": "nonpayable",
      "type": "function"
    },
    {
      "inputs": [
        {
          "internalType": "string",
          "name": "sourceId",
          "type": "string"
        },
        {
          "internalType": "string",
          "name": "destId",
          "type": "string"
        }
      ],
      "name": "triggerFailover",
      "outputs": [],
      "stateMutability": "nonpayable",
      "type": "function"
    },
    {
      "inputs": [
        {
          "internalType": "string",
          "name": "switchId",
          "type": "string"
        },
        {
          "internalType": "uint256",
          "name": "currentLoad",
          "type": "uint256"
        },
        {
          "internalType": "uint256",
          "name": "linkLatency",
          "type": "uint256"
        }
      ],
      "name": "updateMetrics",
      "outputs": [],
      "stateMutability": "nonpayable",
      "type": "function"
    },
    {
      "inputs": [
        {
          "internalType": "string",
          "name": "sourceId",
          "type": "string"
        },
        {
          "internalType": "string",
          "name": "destId",
          "type": "string"
        }
      ],
      "name": "getLinkStatus",
      "outputs": [
        {
          "components": [
            {
              "internalType": "string",
              "name": "sourceId",
              "type": "string"
            },
            {
              "internalType": "string",
              "name": "destId",
              "type": "string"
            },
            {
              "internalType": "uint256",
              "name": "bandwidth",
              "type": "uint256"
            },
            {
              "internalType": "uint256",
              "name": "currentLoad",
              "type": "uint256"
            },
            {
              "internalType": "uint256",
              "name": "latency",
              "type": "uint256"
            },
            {
              "internalType": "enum EnhancedNetworkManager.LinkState",
              "name": "state",
              "type": "uint8"
            },
            {
              "internalType": "uint256",
              "name": "lastUpdated",
              "type": "uint256"
            }
          ],
          "internalType": "struct EnhancedNetworkManager.Link",
          "name": "",
          "type": "tuple"
        }
      ],
      "stateMutability": "view",
      "type": "function"
    },
    {
      "inputs": [
        {
          "internalType": "string",
          "name": "sourceId",
          "type": "string"
        },
        {
          "internalType": "string",
          "name": "destId",
          "type": "string"
        }
      ],
      "name": "getRedundantPath",
      "outputs": [
        {
          "components": [
            {
              "internalType": "string",
              "name": "primaryPath",
              "type": "string"
            },
            {
              "internalType": "string",
              "name": "secondaryPath",
              "type": "string"
            },
            {
              "internalType": "bool",
              "name": "isPrimaryActive",
              "type": "bool"
            },
            {
              "internalType": "uint256",
              "name": "lastFailover",
              "type": "uint256"
            }
          ],
          "internalType": "struct EnhancedNetworkManager.PathRedundancy",
          "name": "",
          "type": "tuple"
        }
      ],
      "stateMutability": "view",
      "type": "function"
    }
  ],
  "bytecode": "0x6080604052348015600e575f5ffd5b50600380546001600160a01b0319163390811790915560735760405162461bcd60e51b815260206004820152601560248201527f496e76616c6964206f776e657220616464726573730000000000000000000000604482015260640160405180910390fd5b611594806100805f395ff3fe608060405234801561000f575f5ffd5b50600436106100a6575f3560e01c80638da5cb5b1161006e5780638da5cb5b14610125578063a07ad43514610150578063ad6a4e6814610163578063b2fccc7f14610183578063bd1217be146101a9578063f70b7e70146101c9575f5ffd5b80631860895f146100aa5780632232c6e0146100bf5780634fc9e77e146100ec578063623f164f146100ff57806363df2c3314610112575b5f5ffd5b6100bd6100b8366004610ed8565b6101ec565b005b6100d26100cd366004610f3b565b610282565b6040516100e3959493929190610fd5565b60405180910390f35b6100bd6100fa366004611015565b610347565b6100bd61010d3660046110d6565b6103ee565b6100bd61012036600461112b565b6105c5565b600354610138906001600160a01b031681565b6040516001600160a01b0390911681526020016100e3565b6100bd61015e366004611174565b6106c7565b610176610171366004610ed8565b6107f4565b6040516100e391906111fd565b610196610191366004611280565b6109c2565b6040516100e39796959493929190611297565b6101bc6101b7366004610ed8565b610b0c565b6040516100e391906112ee565b6101dc6101d7366004611280565b610cbb565b6040516100e39493929190611349565b5f8282604051602001610200929190611398565b60408051808303601f1901815282825280516020918201205f818152600280845290849020908101805460ff8082161560ff199092168217909255426003840155838752161515928501929092529350917fc2c6509abf9e75fcf78bd95f9461d11d620dd4d23e9f38c885540200600dd17a910160405180910390a150505050565b80516020818301810180515f825292820191909301209152805481906102a7906113ac565b80601f01602080910402602001604051908101604052809291908181526020018280546102d3906113ac565b801561031e5780601f106102f55761010080835404028352916020019161031e565b820191905f5260205f20905b81548152906001019060200180831161030157829003601f168201915b50505060018401546002850154600390950154939460ff80831695610100909304169350915085565b5f848460405160200161035b929190611398565b60408051601f1981840301815282825280516020918201206080840183528684528382018690526001848401525f60608501819052818152600290925291902082519193509081906103ad9082611430565b50602082015160018201906103c29082611430565b50604082015160028201805460ff19169115159190911790556060909101516003909101555050505050565b5f8351116104435760405162461bcd60e51b815260206004820152601960248201527f5377697463682049442063616e6e6f7420626520656d7074790000000000000060448201526064015b60405180910390fd5b5f811161049d5760405162461bcd60e51b815260206004820152602260248201527f546f74616c20706f727473206d7573742062652067726561746572207468616e604482015261020360f41b606482015260840161043a565b600282818111156104b0576104b0610fa2565b60ff1611156104f75760405162461bcd60e51b8152602060048201526013602482015272496e76616c696420737769746368207479706560681b604482015260640161043a565b6040518060a0016040528084815260200183600281111561051a5761051a610fa2565b81526020016001151581526020018281526020015f8152505f8460405161054191906114ea565b9081526040519081900360200190208151819061055e9082611430565b50602082015160018083018054909160ff199091169083600281111561058657610586610fa2565b021790555060408201516001820180549115156101000261ff001990921691909117905560608201516002820155608090910151600390910155505050565b5f5f846040516105d591906114ea565b908152604051908190036020019020600181015490915060ff610100909104166106385760405162461bcd60e51b8152602060048201526014602482015273537769746368206973206e6f742061637469766560601b604482015260640161043a565b5f8460405160200161064a91906114ea565b60408051601f1981840301815282825280516020918201205f818152600190925291902060038101879055600481018690554260068201819055919350917f45af5a5dfc962c686eda092126a0f6eb9ecf3640f79cfbde427e3db369b5c2c9916106b791899189916114fc565b60405180910390a1505050505050565b5f85856040516020016106db929190611398565b6040516020818303038152906040528051906020012090506040518060e001604052808781526020018681526020018581526020015f815260200184815260200183600281111561072e5761072e610fa2565b8152426020918201525f838152600190915260409020815181906107529082611430565b50602082015160018201906107679082611430565b5060408201518160020155606082015181600301556080820151816004015560a0820151816005015f6101000a81548160ff021916908360028111156107af576107af610fa2565b021790555060c082015181600601559050507fca4f1a0125bd8e15102f9b6fb950ce0f61a9bcfaaf6afed71f29c849257a29c18686846040516106b793929190611520565b6107fc610df2565b5f8383604051602001610810929190611398565b60408051601f1981840301815282825280516020918201205f81815260019092529082902060e0840190925281549093508290829061084e906113ac565b80601f016020809104026020016040519081016040528092919081815260200182805461087a906113ac565b80156108c55780601f1061089c576101008083540402835291602001916108c5565b820191905f5260205f20905b8154815290600101906020018083116108a857829003601f168201915b505050505081526020016001820180546108de906113ac565b80601f016020809104026020016040519081016040528092919081815260200182805461090a906113ac565b80156109555780601f1061092c57610100808354040283529160200191610955565b820191905f5260205f20905b81548152906001019060200180831161093857829003601f168201915b505050918352505060028281015460208301526003830154604083015260048301546060830152600583015460809092019160ff169081111561099a5761099a610fa2565b60028111156109ab576109ab610fa2565b815260200160068201548152505091505092915050565b60016020525f90815260409020805481906109dc906113ac565b80601f0160208091040260200160405190810160405280929190818152602001828054610a08906113ac565b8015610a535780601f10610a2a57610100808354040283529160200191610a53565b820191905f5260205f20905b815481529060010190602001808311610a3657829003601f168201915b505050505090806001018054610a68906113ac565b80601f0160208091040260200160405190810160405280929190818152602001828054610a94906113ac565b8015610adf5780601f10610ab657610100808354040283529160200191610adf565b820191905f5260205f20905b815481529060010190602001808311610ac257829003601f168201915b505050506002830154600384015460048501546005860154600690960154949592949193509160ff169087565b610b37604051806080016040528060608152602001606081526020015f151581526020015f81525090565b5f8383604051602001610b4b929190611398565b60408051601f1981840301815282825280516020918201205f81815260029092529082902060808401909252815490935082908290610b89906113ac565b80601f0160208091040260200160405190810160405280929190818152602001828054610bb5906113ac565b8015610c005780601f10610bd757610100808354040283529160200191610c00565b820191905f5260205f20905b815481529060010190602001808311610be357829003601f168201915b50505050508152602001600182018054610c19906113ac565b80601f0160208091040260200160405190810160405280929190818152602001828054610c45906113ac565b8015610c905780601f10610c6757610100808354040283529160200191610c90565b820191905f5260205f20905b815481529060010190602001808311610c7357829003601f168201915b5050509183525050600282015460ff1615156020820152600390910154604090910152949350505050565b60026020525f9081526040902080548190610cd5906113ac565b80601f0160208091040260200160405190810160405280929190818152602001828054610d01906113ac565b8015610d4c5780601f10610d2357610100808354040283529160200191610d4c565b820191905f5260205f20905b815481529060010190602001808311610d2f57829003601f168201915b505050505090806001018054610d61906113ac565b80601f0160208091040260200160405190810160405280929190818152602001828054610d8d906113ac565b8015610dd85780601f10610daf57610100808354040283529160200191610dd8565b820191905f5260205f20905b815481529060010190602001808311610dbb57829003601f168201915b505050506002830154600390930154919260ff1691905084565b6040518060e0016040528060608152602001606081526020015f81526020015f81526020015f81526020015f6002811115610e2f57610e2f610fa2565b81526020015f81525090565b634e487b7160e01b5f52604160045260245ffd5b5f82601f830112610e5e575f5ffd5b81356001600160401b03811115610e7757610e77610e3b565b604051601f8201601f19908116603f011681016001600160401b0381118282101715610ea557610ea5610e3b565b604052818152838201602001851015610ebc575f5ffd5b816020850160208301375f918101602001919091529392505050565b5f5f60408385031215610ee9575f5ffd5b82356001600160401b03811115610efe575f5ffd5b610f0a85828601610e4f565b92505060208301356001600160401b03811115610f25575f5ffd5b610f3185828601610e4f565b9150509250929050565b5f60208284031215610f4b575f5ffd5b81356001600160401b03811115610f60575f5ffd5b610f6c84828501610e4f565b949350505050565b5f81518084528060208401602086015e5f602082860101526020601f19601f83011685010191505092915050565b634e487b7160e01b5f52602160045260245ffd5b60038110610fd257634e487b7160e01b5f52602160045260245ffd5b50565b60a081525f610fe760a0830188610f74565b9050610ff286610fb6565b602082019590955292151560408401526060830191909152608090910152919050565b5f5f5f5f60808587031215611028575f5ffd5b84356001600160401b0381111561103d575f5ffd5b61104987828801610e4f565b94505060208501356001600160401b03811115611064575f5ffd5b61107087828801610e4f565b93505060408501356001600160401b0381111561108b575f5ffd5b61109787828801610e4f565b92505060608501356001600160401b038111156110b2575f5ffd5b6110be87828801610e4f565b91505092959194509250565b60038110610fd2575f5ffd5b5f5f5f606084860312156110e8575f5ffd5b83356001600160401b038111156110fd575f5ffd5b61110986828701610e4f565b935050602084013561111a816110ca565b929592945050506040919091013590565b5f5f5f6060848603121561113d575f5ffd5b83356001600160401b03811115611152575f5ffd5b61115e86828701610e4f565b9660208601359650604090950135949350505050565b5f5f5f5f5f60a08688031215611188575f5ffd5b85356001600160401b0381111561119d575f5ffd5b6111a988828901610e4f565b95505060208601356001600160401b038111156111c4575f5ffd5b6111d088828901610e4f565b945050604086013592506060860135915060808601356111ef816110ca565b809150509295509295909350565b602081525f825160e06020840152611219610100840182610f74565b90506020840151601f198483030160408501526112368282610f74565b9150506040840151606084015260608401516080840152608084015160a084015260a084015161126581610fb6565b8060c08501525060c084015160e08401528091505092915050565b5f60208284031215611290575f5ffd5b5035919050565b60e081525f6112a960e083018a610f74565b82810360208401526112bb818a610f74565b9150508660408301528560608301528460808301526112d984610fb6565b60a082019390935260c0015295945050505050565b602081525f82516080602084015261130960a0840182610f74565b90506020840151601f198483030160408501526113268282610f74565b915050604084015115156060840152606084015160808401528091505092915050565b608081525f61135b6080830187610f74565b828103602084015261136d8187610f74565b941515604084015250506060015292915050565b5f81518060208401855e5f93019283525090919050565b5f610f6c6113a68386611381565b84611381565b600181811c908216806113c057607f821691505b6020821081036113de57634e487b7160e01b5f52602260045260245ffd5b50919050565b601f82111561142b57805f5260205f20601f840160051c810160208510156114095750805b601f840160051c820191505b81811015611428575f8155600101611415565b50505b505050565b81516001600160401b0381111561144957611449610e3b565b61145d8161145784546113ac565b846113e4565b6020601f82116001811461148f575f83156114785750848201515b5f19600385901b1c1916600184901b178455611428565b5f84815260208120601f198516915b828110156114be578785015182556020948501946001909201910161149e565b50848210156114db57868401515f19600387901b60f8161c191681555b50505050600190811b01905550565b5f6114f58284611381565b9392505050565b606081525f61150e6060830186610f74565b60208301949094525060400152919050565b606081525f6115326060830186610f74565b82810360208401526115448186610f74565b91505061155083610fb6565b82604083015294935050505056fea26469706673582212203a585c1ad781d54648aaf9fac2a2e8dca3094977912c84bed8184ab4fa43c9f064736f6c634300081c0033",
  "immutableReferences": {},
  "source": "// SPDX-License-Identifier: MIT\npragma solidity ^0.8.0;\n\ncontract EnhancedNetworkManager {\n    enum SwitchType { CORE, DISTRIBUTION, ACCESS }\n    enum LinkState { ACTIVE, DEGRADED, FAILED }\n    \n    struct Switch {\n        string switchId;\n        SwitchType switchType;\n        bool isActive;\n        uint256 totalPorts;\n        uint256 usedPorts;\n    }\n    \n    struct Link {\n        string sourceId;\n        string destId;\n        uint256 bandwidth;\n        uint256 currentLoad;\n        uint256 latency;\n        LinkState state;\n        uint256 lastUpdated;\n    }\n    \n    struct PathRedundancy {\n        string primaryPath;    // Comma-separated switch IDs\n        string secondaryPath;  // Backup path\n        bool isPrimaryActive;\n        uint256 lastFailover;\n    }\n    \n    // State variables\n    mapping(string => Switch) public switches;\n    mapping(bytes32 => Link) public links;\n    mapping(bytes32 => PathRedundancy) public redundantPaths;\n    address public owner;\n    \n    // Events\n    event SwitchStatusChanged(string switchId, bool isActive);\n    event LinkStateChanged(string sourceId, string destId, LinkState state);\n    event PathFailover(bytes32 pathId, bool isPrimaryActive);\n    event MetricsUpdated(string switchId, uint256 load, uint256 timestamp);\n\n    constructor() {\n        owner = msg.sender;\n        require(owner != address(0), \"Invalid owner address\");\n    }\n    \n    // Switch management\n    function registerSwitch(\n    string memory switchId,\n    SwitchType switchType,\n    uint256 totalPorts\n    ) public {\n        require(bytes(switchId).length > 0, \"Switch ID cannot be empty\");\n        require(totalPorts > 0, \"Total ports must be greater than 0\");\n        require(uint8(switchType) <= uint8(SwitchType.ACCESS), \"Invalid switch type\");\n    \n        switches[switchId] = Switch(\n            switchId,\n            switchType,\n            true,\n            totalPorts,\n            0\n        );\n    }\n    \n    // Link management\n    function updateLink(\n        string memory sourceId,\n        string memory destId,\n        uint256 bandwidth,\n        uint256 latency,\n        LinkState state\n    ) public {\n        bytes32 linkId = keccak256(abi.encodePacked(sourceId, destId));\n        links[linkId] = Link(\n            sourceId,\n            destId,\n            bandwidth,\n            0,\n            latency,\n            state,\n            block.timestamp\n        );\n        \n        emit LinkStateChanged(sourceId, destId, state);\n    }\n    \n    // Path redundancy management\n    function setRedundantPath(\n        string memory sourceId,\n        string memory destId,\n        string memory primaryPath,\n        string memory secondaryPath\n    ) public {\n        bytes32 pathId = keccak256(abi.encodePacked(sourceId, destId));\n        redundantPaths[pathId] = PathRedundancy(\n            primaryPath,\n            secondaryPath,\n            true,\n            0\n        );\n    }\n    \n    function triggerFailover(string memory sourceId, string memory destId) public {\n        bytes32 pathId = keccak256(abi.encodePacked(sourceId, destId));\n        PathRedundancy storage path = redundantPaths[pathId];\n        path.isPrimaryActive = !path.isPrimaryActive;\n        path.lastFailover = block.timestamp;\n        \n        emit PathFailover(pathId, path.isPrimaryActive);\n    }\n    \n    // Metrics and monitoring\n    function updateMetrics(\n        string memory switchId,\n        uint256 currentLoad,\n        uint256 linkLatency\n    ) public {\n        Switch storage switch_ = switches[switchId];\n        require(switch_.isActive, \"Switch is not active\");\n        \n        // Update link metrics\n        bytes32 linkId = keccak256(abi.encodePacked(switchId));\n        Link storage link = links[linkId];\n        link.currentLoad = currentLoad;\n        link.latency = linkLatency;\n        link.lastUpdated = block.timestamp;\n        \n        emit MetricsUpdated(switchId, currentLoad, block.timestamp);\n    }\n    \n    // Getters for network state\n    function getLinkStatus(string memory sourceId, string memory destId) \n        public view returns (Link memory) {\n        bytes32 linkId = keccak256(abi.encodePacked(sourceId, destId));\n        return links[linkId];\n    }\n    \n    function getRedundantPath(string memory sourceId, string memory destId) \n        public view returns (PathRedundancy memory) {\n        bytes32 pathId = keccak256(abi.encodePacked(sourceId, destId));\n        return redundantPaths[pathId];\n    }\n}",
  "sourcePath": "/home/sairam/decentralized-network/src/contracts/EnhancedNetworkManager.sol",
  "compiler": {
    "name": "solc",
    "version": "0.8.28+commit.7893614a.Emscripten.clang"
  },
  "schemaVersion": "3.4.16",
  "updatedAt": "2025-01-19T08:38:32.800Z",
  "devdoc": {
    "kind": "dev",
    "methods": {},
    "version": 1
  },
  "userdoc": {
    "kind": "user",
    "methods": {},
    "version": 1
  }
}